S00E00006472697665312E73726563CB
S113000081C00000A0C000009EC000009CC0000091
S11300109AC0000098C0000096C0000094C0000080
S113002092C0000090C000008EC000008CC0000090
S11300308AC0000088C0000086C00000BCC0000068
S113004082C0000080C000007EC000007CC00000B0
S11300507AC0000078C0000076C0000074C00000C0
S113006072C0000070C000006EC000006CC00000D0
S11300706AC0000068C0000066C0000064C00000E0
S113008062C0000060C000005EC000005CC00000F0
S11300905AC0000058C0000056C0000054C0000000
S11300A052C0000050C000004EC000004CC0000010
S11300B04AC0000048C0000046C0000044C0000020
S11300C042C0000040C000003EC000003CC0000030
S11300D03AC0000038C0000026C6000034C000004A
S11300E032C0000026072B073F0760077507790712
S11300F0A407ED07020806080A081E084408480871
S113010053085B0811241FBECFEFD1E2DEBFCDBF81
S113011000E00CBF12E0A0E0B2E0E0E0F9E100E0B2
S11301200BBF02C007900D92AA35B107D9F723E09F
S1130130AAE5B2E001C01D92AD32B207E1F70E9418
S1130140FD090C947E0C5CCFA2B3B0E022EE3FEF2D
S11301504FEF5FEF0E94090C2FE330E040E050E0E6
S11301600E94E50BCA01B901615F7F4F8F4F9F4F1A
S11301700E94BF0A60935A0270935B0280935C02F0
S113018090935D0208951092B00087E08093B100CF
S113019081E08093700010925F0210925E020895D5
S11301A01092B0001092B1001092700010925F0291
S11301B010925E0208951F920F920FB60F921124AF
S11301C00BB60F922F933F934F935F936F937F934D
S11301D08F939F93AF93BF93EF93FF9380915E02AE
S11301E090915F02019690935F0280935E02CD9797
S11301F008F18091600290916102089739F489E0D6
S113020090E09093610280936002CADF80915E0265
S113021090915F028B35910568F080916002909116
S11302206102049731F485E090E090936102809339
S11302306002B6DFFF91EF91BF91AF919F918F91D3
S11302407F916F915F914F913F912F910F900BBED2
S11302500F900FBE0F901F9018951092630210928A
S113026062021092610210926002089580919202DB
S11302709091930260919402709195020E94D20B26
S1130280072E000C880B990B0E94BF0A20911C02B8
S113029030911D0240911E0250911F020E94230AB8
S11302A09B01AC0160938A0270938B0280938C0251
S11302B090938D0260911402709115028091160240
S11302C0909117020E946F0B6093820270938302D5
S11302D08093840290938502089580918E02909178
S11302E08F0260919002709191020E94D20B072EAE
S11302F0000C880B990B0E94BF0A209118023091C0
S1130300190240911A0250911B020E94230A9B0178
S1130310AC01609386027093870280938802909365
S113032089026091100270911102809112029091E1
S113033013020E946F0B60937E0270937F0280937E
S113034080029093810208958091780290917902BD
S113035060917A0270917B020E94D20B072E000CEE
S1130360880B990B0E94BF0A9B01AC0160910C029F
S113037070910D0280910E0290910F020E94230A47
S11303809B01AC01609370027093710280937202BE
S113039090937302609104027091050280910602A9
S11303A0909107020E946F0B609368027093690238
S11303B080936A0290936B020895809174029091E5
S11303C0750260917602709177020E94D20B072E1B
S11303D0000C880B990B0E94BF0A9B01AC01609131
S11303E008027091090280910A0290910B020E9406
S11303F0230A9B01AC0160936C0270936D0280939D
S11304006E0290936F0260910002709101028091DC
S11304100202909103020E946F0B60936402709336
S11304206502809366029093670208951092970282
S113043010929602109295021092940210929302D6
S113044010929202109291021092900210928F02D6
S113045010928E0210927D0210927C0210927B0206
S113046010927A0210927902109278021092770216
S11304701092760210927502109274020895CF932E
S1130480DF93C0E0D0E0CE01DD230CF401968E7F33
S1130490FC01E854FD4F60817181CE010E945D0C26
S11304A02296C032D10579F7DF91CF910895CF9389
S11304B0DF93C0E0D0E0CE010E94580C9E01DD2302
S11304C014F42F5F3F4F2E7FF901E854FD4F9183C1
S11304D080832296C032D10571F7DF91CF910895C0
S11304E0092E000CAA0BBB0B81302FEF9207A20739
S11304F0B20724F481E09FEFAFEFBFEF8F3F910588
S1130500A105B10529F024F08FEF90E0A0E0B0E060
S11305109C01409142025091430266277727641B55
S1130520750B861797073CF4289A299822273327B6
S1130530281B390B08C0481759071CF4299A289816
S113054002C020E030E03093990020939800089591
S1130550092E000CAA0BBB0B81302FEF9207A207C8
S1130560B20724F481E09FEFAFEFBFEF8F3F910517
S1130570A105B10529F024F08FEF90E0A0E0B0E0F0
S11305809C01409142025091430266277727641BE5
S1130590750B861797073CF42A9A2B982227332742
S11305A0281B390B08C0481759071CF42B9A2A98A2
S11305B002C020E030E030939B0020939A0008951D
S11305C0092E000CAA0BBB0B81302FEF9207A20758
S11305D0B20724F481E09FEFAFEFBFEF8F3F9105A7
S11305E0A105B10529F024F08FEF90E0A0E0B0E080
S11305F09C01409142025091430266277727641B75
S1130600750B861797073CF42C9A2D9822273327CD
S1130610281B390B08C0481759071CF42D9A2C982D
S113062002C020E030E030939D0020939C000895A8
S11306309C01CA01821B930B861B970B9093270383
S113064080932603240F351F261B370B3093250375
S113065020932403640F751F660F771F7093230381
S1130660609322033DDF809124039091250370DF82
S11306708091220390912303A3CF08954F925F9218
S11306806F927F928F929F92AF92BF92CF92DF929E
S1130690EF92FF92CF93DF9320917A0230917B0205
S11306A0232B31F42091760230917702232B11F120
S11306B0EC01C0906802D0906902E0906A02F09068
S11306C06B028090640290906502A0906602B090E4
S11306D06702A5019401C701B601B5D61DD72B0148
S11306E03C01A5019401C701B601AED615D7A201FC
S11306F0CE019EDFDF91CF91FF90EF90DF90CF90FE
S1130700BF90AF909F908F907F906F905F904F902D
S113071008954F925F926F927F928F929F92AF92C1
S1130720BF92CF92DF92EF92FF92CF93DF9320910B
S1130730900230919102232B31F420919402309154
S11307409502232B21F1EC01C0907E02D0907F0210
S1130750E0908002F0908102809082029090830267
S1130760A0908402B0908502A5019401C701B6014E
S11307706AD6D2D62B013C01A5019401C701B6016A
S113078063D6CAD6DC01CB01A201BE0151DFDF91E1
S1130790CF91FF90EF90DF90CF90BF90AF909F905C
S11307A08F907F906F905F904F9008954F925F92DB
S11307B06F927F928F929F92AF92BF92CF92DF926D
S11307C0EF92FF92CF93DF93CDB7DEB728970FB6A2
S11307D0F894DEBF0FBECDBF80906802909069028E
S11307E0A0906A02B0906B0240906402509065023F
S11307F0609066027090670280917E0290917F0201
S1130800A0918002B091810289839A83AB83BC83D7
S1130810C0908202D0908302E0908402F09085021E
S1130820A3019201C501B4010ED629813A814B81FD
S11308305C810AD6A701960106D620E030E040E0AC
S11308405FE34DD769D66D837E838F839887A30139
S11308509201C501B401F8D55FD64B015C01A70133
S1130860960169817A818B819C81EED555D6DC0114
S1130870CB014D815E81B401DBDE28960FB6F8947E
S1130880DEBF0FBECDBFDF91CF91FF90EF90DF9021
S1130890CF90BF90AF909F908F907F906F905F901C
S11308A04F90089540911C0350911D0380911A03A9
S11308B090911B03480F591F552314F44F5F5F4F4A
S11308C05595479560911E0370911F0380912003F5
S11308D090912103ADCE0895E0E9F0E08081896A2A
S11308E08083E1E9F0E080818D608083089580E475
S11308F080937C0087E880937A0010927B000895AF
S1130900ECE7F0E09081907E9083EBE7F0E090815B
S1130910977F9083982F9F70983048F4ECE7F0E02D
S113092090818770892B808310927B000CC0ECE748
S1130930F0E080819770982B9083EBE7F0E01082D1
S1130940808188608083EAE7F0E08081806480832E
S1130950808184FFFDCF8091780090917900089583
S1130960AF92BF92CF92DF92EF92FF920F931F93B9
S1130970CF93DF935BDD0F2EF8E9EF2EF2E0FF2E2D
S1130980F02D08EB12E0C0E0D0E0CC24C394D12CCD
S11309908C2FB6DFF701819391937F01F8012191A8
S11309A031918F012817390708F5809194029091AD
S11309B0950201969093950280939402209192025D
S11309C030919302CE010196820F931F909393026C
S11309D08093920220919702C6010C2E02C0880FC8
S11309E0991F0A94E2F7822B809397022196C830CC
S11309F0D10571F60F2EF8EACF2EF2E0DF2EF02D9E
S1130A000F2EF8ECEF2EF2E0FF2EF02D18E0C0E0F0
S1130A10D0E0AA24A394B12C812F72DFF601819334
S1130A2091936F01F701219131917F0128173907C3
S1130A3008F5809190029091910201969093910211
S1130A408093900220918E0230918F02CE01019604
S1130A50820F931F90938F0280938E0220919602AF
S1130A60C5010C2E02C0880F991F0A94E2F7822B4D
S1130A708093960221961F5FC830D10569F6809154
S1130A8097028BB9809196028093020120B1209342
S1130A902C0336B1E0917A02F0917B0260917802E6
S1130AA07091790240917D0280E090E0C1E0D0E055
S1130AB020FF0DC03196DC0111966A0F7B1FDE0109
S1130AC0082E02C0AA0FBB1F0A94E2F74A2B2695F0
S1130AD001968830910561F720932C03F0937B02F3
S1130AE0E0937A02709379026093780240937D02D6
S1130AF06091760270917702409174025091750270
S1130B0020917C0280E090E0A1E0B0E030FF0EC0D4
S1130B106F5F7F4FFC0131964E0F5F1FFD01082E62
S1130B2002C0EE0FFF1F0A94E2F72E2B36950196B2
S1130B308830910559F730932A03709377026093B4
S1130B407602509375024093740220937C02DF91E5
S1130B50CF911F910F91FF90EF90DF90CF90BF90B6
S1130B60AF90089563DCFCDE80919402909195022D
S1130B70892B11F07BDB08C0109282021092830251
S1130B8010928402109285028091900290919102B9
S1130B90892B11F0A2DB08C010927E0210927F0212
S1130BA0109280021092810280917A0290917B02CD
S1130BB0892B11F0C9DB08C01092680210926902F7
S1130BC010926A0210926B028091760290917702E1
S1130BD0892B11F0F2CB08951092640210926502F1
S1130BE0109266021092670208956F927F928F921C
S1130BF09F92AF92BF92CF92DF92EF92FF921F9398
S1130C00CF93DF93109202010F2EF8EDEF2EF2E056
S1130C10FF2EF02D0F2EF0E2CF2EF2E0DF2EF02D7E
S1130C200F2EF8EFAF2EF2E0BF2EF02DD601F70114
S1130C3088EE93E0119211928D939D93EA15FB0532
S1130C40C9F740E050E060E070E080E090E0F0DC64
S1130C508FEF8BB90F2EF9EB6F2EFBE07F2EF02D6B
S1130C6027C0812F4DDE9093F9028093F8022881EA
S1130C7039818217930718F09983888309C0D401B6
S1130C802D913C9111978217930710F48D939C93A7
S1130C901F5F2296B2E08B0E911C103111F7E6E62D
S1130CA0FEE03197F1F70000F1E06F1A710821F0CE
S1130CB04601E70110E0D5CFE8EBF2E0D7012D9132
S1130CC03D917D01D6018D919D916D01820F931F00
S1130CD09695879581939193EA14FB0479F71BB851
S1130CE0BFEFEFEFFCE2B150E040F040E1F700C0AD
S1130CF00000DF91CF911F91FF90EF90DF90CF9094
S1130D00BF90AF909F908F907F906F9008951092B6
S1130D1035018FE58093340188E98093310186E0C1
S1130D208093320108951F920F920FB60F921124EF
S1130D300BB60F922F933F934F935F938F939F9391
S1130D40AF93BF93EF93FF9381E090E090932903D7
S1130D5080932803E09136018E2F90E09093470210
S1130D6080934602AC019C01295C3109263331058C
S1130D7098F49093450280934402875E91094097CA
S1130D80B8F4E75EF0E0EE0FFF1FE650FD4F81E0A0
S1130D9090E0918380830CC0493C510548F4A091B4
S1130DA04402A95CA03120F4B0E0A65BBD4FEC93F3
S1130DB0FF91EF91BF91AF919F918F915F914F916F
S1130DC03F912F910F900BBE0F900FBE0F901F906D
S1130DD0189540E050E060E070E080E090E028DCAE
S1130DE08FEF8BB9E2E0F1E010822FEF3FEF9CE24E
S1130DF0215030409040E1F700C000001BB88083D0
S1130E002FEF3FEF8CE2215030408040E1F700C0EB
S1130E100000109261021092600208958F929F92D6
S1130E20AF92BF92CF92DF92EF92FF92CF93DF9374
S1130E3099DEE0916002F0916102E031F10508F081
S1130E4042C18827EE58FF4F8F4FDBC47DD91092E3
S1130E500B0128DD39C188E290E05BDC80919002CF
S1130E609091910206970CF42FC1809160029091A9
S1130E7061020196909361028093600225C120E093
S1130E8030E040EF51E460915A0270915B0280912E
S1130E905C0290915D02D8D23FD3CB013ADC8091C1
S1130EA0760290917702892B09F40EC18091600239
S1130EB0909161020196909361028093600204C153
S1130EC08EE79FEFDBDB80917602909177020797A4
S1130ED00CF4FAC0809160029091610201969093A3
S1130EE06102809360024FD9EFC080E090E0C6DBDE
S1130EF0EBC080E590E0C2DB20E030E0A901609126
S1130F007E0270917F02809180029091810200D3D1
S1130F10882309F4D9C020E030E0A901609182025D
S1130F20709183028091840290918502F1D288238A
S1130F3009F4CAC080916002909161020196909375
S1130F40610280936002C0C080E090E0E2DBC09068
S1130F508602D0908702E0908802F0908902809007
S1130F608A0290908B02A0908C02B0908D02C701EF
S1130F70B601D2D2EB01DD2324F4CC27DD27C61B36
S1130F80D70BC501B401C8D29B01772324F42227CF
S1130F903327261B370BCE01820F931F03970CF0C8
S1130FA093C020E030E0A901C701B601B1D2882383
S1130FB009F48AC020E030E0A901C501B401A8D237
S1130FC0882309F481C080916002909161020196A6
S1130FD0909361028093600277C08CE390E099DB88
S1130FE0809194029091950207970CF46DC08091C2
S1130FF06002909161020196909361028093600275
S1131000C2D862C080EB9FEF84DB5EC080E090E0DA
S113101080DB5AC080E590E07CDB80919402909163
S1131020950207970CF450C0809160029091610280
S11310300196909361028093600246C020E030E004
S113104040E252E460915A0270915B0280915C022A
S113105090915D02F9D160D2CB015BDB80917A0281
S113106090917B02892B81F1809176029091770295
S1131070892B51F1809160029091610201969093C5
S113108061028093600220C091DB10920B011CC0AE
S113109080911E0390911F033CDBEBE0F1E0808123
S11310A08068808311C080911E0390911F0331DBFF
S11310B010920B0109C080911E0390911F0329DB3C
S11310C010920B0101C085DEDF91CF91FF90EF906C
S11310D0DF90CF90BF90AF909F908F9008954F92E4
S11310E05F926F927F928F929F92AF92BF92CF92B4
S11310F0DF92EF92FF92CF93DF93CDB7DEB72897BD
S11311000FB6F894DEBF0FBECDBFC0904002D090A2
S1131110410226010D2C000C66087708D194C19475
S1131120D1080D2C000CEE08FF0880904802909026
S11311304902092C000CAA08BB08D301C2018C196E
S11311409D09AE09BF098D839E83AF83B887EAE406
S1131150F2E0A081B0E02D813E814F81588559D3C2
S1131160A501940132D3DA01C9018C0D9D1DAE1D78
S1131170BF1D90931F0380931E03D701C6018419DA
S11311809509A609B70989839A83AB83BC83A09187
S11311904B02B0E029813A814B815C813AD3A501AD
S11311A0940113D3DA01C901840D951DA61DB71D41
S11311B09093210380932003A0914C02B0E02D81F1
S11311C03E814F81588525D3A5019401FED2C20EDC
S11311D0D31EE41EF51ED0921B03C0921A03A091E5
S11311E04D02B0E029813A814B815C8112D3A50183
S11311F09401EBD2DA01C901840D951DA61DB71D1A
S113120090931D0380931C038091FA029091FB023A
S1131210019729F4EADC1092FB021092FA02809101
S1131220FC029091FD02019731F429D916D810924D
S1131230FD021092FC028091FE029091FF02019740
S1131240F9F480916002909161020196092E000CDC
S1131250AA0BBB0BBB231CF480E090E0DC018031C3
S11312609105A105B10524F08FE090E0A0E0B0E085
S113127090936102809360021092FF021092FE022A
S113128080910403909105030197F9F48091600221
S1131290909161020197092E000CAA0BBB0BBB2392
S11312A01CF480E090E0DC0180319105A105B105DA
S11312B024F08FE090E0A0E0B0E09093610280938E
S11312C0600210920503109204038091020390912E
S11312D00303019721F410920303109202038091F7
S11312E0000390910103019721F4109201031092DD
S11312F000038091160390911703019721F4109233
S1131300170310921603809114039091150301970B
S113131021F41092150310921403809112039091FA
S11313201303019721F41092130310921203809176
S1131330180390911903019721F410921903109244
S1131340180380910E0390910F03019721F41092DA
S11313500F0310920E0380911003909111030197D3
S113136021F4109211031092100380910A039091BA
S11313700B03019721F410920B0310920A0380913E
S11313800C0390910D03019741F4109261021092A5
S1131390600210920D0310920C0380910603909149
S11313A00703019751F486E090E0909361028093E3
S11313B06002109207031092060380910803909133
S11313C00903019729F405DD10920903109208031B
S11313D028960FB6F894DEBF0FBECDBFDF91CF9134
S11313E0FF90EF90DF90CF90BF90AF909F908F9041
S11313F07F906F905F904F90089511B88FEF84B9EC
S113140017B88AB98DB98EB980930101809304010C
S113141080EF80930A01EBE0F1E080818F608083AC
S113142010BA1092070113BA789461DA70DC54DAB6
S11314303ED840E050E060E070E080E090E0F8D812
S11314404EDEECDCFDCF5058BB27AA270ED00DC1D1
S1131450FED030F003D120F031F49F3F11F41EF49C
S1131460F3C00EF4E095E7FBE9C0E92F0FD180F358
S1131470BA17620773078407950718F071F49EF58D
S113148027C10EF4E0950B2EBA2FA02D0B01B90144
S113149090010C01CA01A0011124FF27591B99F0E6
S11314A0593F50F4503E68F11A16F040A22F232FF2
S11314B0342F4427585FF3CF469537952795A79542
S11314C0F0405395C9F77EF41F16BA0B620B730BE9
S11314D0840BBAF09150A1F0FF0FBB1F661F771F5A
S11314E0881FC2F70EC0BA0F621F731F841F48F40F
S11314F0879577956795B795F7959E3F08F0B3CF95
S11315009395880F08F09927EE0F9795879508957E
S113151071D008F481E0089504D06894B111D9C061
S11315200895BCD088F09F5790F0B92F9927B751F0
S1131530A0F0D1F0660F771F881F991F1AF0BA9593
S1131540C9F712C0B13081F0C3D0B1E00895C0C072
S1131550672F782F8827B85F39F0B93FCCF3869589
S113156077956795B395D9F73EF4909580957095E6
S113157061957F4F8F4F9F4F0895E89409C097FB63
S11315803EF490958095709561957F4F8F4F9F4F56
S11315909923A9F0F92F96E9BB279395F69587959A
S11315A077956795B795F111F8CFFAF4BB0F11F45D
S11315B060FF1BC06F5F7F4F8F4F9F4F16C0882304
S11315C011F096E911C0772321F09EE8872F762F3A
S11315D005C0662371F096E8862F70E060E02AF07B
S11315E09A95660F771F881FDAF7880F9695879567
S11315F097F90895990F0008550FAA0BE0E8FEEF3C
S113160016161706E807F907C0F012161306E407C2
S1131610F50798F0621B730B840B950B39F40A26BB
S113162061F0232B242B252B21F408950A2609F499
S1131630A140A6958FEF811D811D089597F99F679D
S113164080E870E060E008959FEF80EC0895002446
S11316500A941616170618060906089500240A9413
S113166012161306140605060895092E0394000C99
S113167011F4882352F0BB0F40F4BF2B11F460FF28
S113168004C06F5F7F4F8F4F9F4F089557FD905851
S1131690440F551F59F05F3F71F04795880F97FB32
S11316A0991F61F09F3F79F08795089512161306EC
S11316B01406551FF2CF4695F1DF08C0161617061B
S11316C01806991FF1CF8695710561050894089550
S11316D0E894BB2766277727CB0197F908950BD0A9
S11316E0C4CFB5DF28F0BADF18F0952309F0A6CFF0
S11316F0ABCF1124EECFCADFA0F3959FD1F3950FA2
S113170050E0551F629FF001729FBB27F00DB11D81
S1131710639FAA27F00DB11DAA1F649F6627B00D11
S1131720A11D661F829F2227B00DA11D621F739FFA
S1131730B00DA11D621F839FA00D611D221F749F08
S11317403327A00D611D231F849F600D211D822F4F
S1131750762F6A2F11249F5750408AF0E1F0882396
S11317604AF0EE0FFF1FBB1F661F771F881F9150A3
S11317705040A9F79E3F510570F060CFAACF5F3F5C
S1131780ECF3983EDCF3869577956795B795F795D6
S1131790E7959F5FC1F7FE2B880F911D969587955E
S11317A097F9089597FB072E16F4009406D077FD59
S11317B008D039D007FC05D03EF4909581959F4F11
S11317C00895709561957F4F0895052E97FB16F443
S11317D000940FD057FD05D03AD007FC02D046F450
S11317E008C050954095309521953F4F4F4F5F4F1E
S11317F0089590958095709561957F4F8F4F9F4F79
S11318000895EE0FFF1F881F8BBF0790F691E02D00
S113181019943FD0A59F900DB49F900DA49F800D67
S1131820911D11240895AA1BBB1B51E107C0AA1FD7
S1131830BB1FA617B70710F0A61BB70B881F991F6D
S11318405A95A9F780959095BC01CD010895A1E220
S11318501A2EAA1BBB1BFD010DC0AA1FBB1FEE1F26
S1131860FF1FA217B307E407F50720F0A21BB30B71
S1131870E40BF50B661F771F881F991F1A9469F7ED
S113188060957095809590959B01AC01BD01CF0149
S11318900895A29FB001B39FC001A39F700D811D45
S11318A01124911DB29F700D811D1124911D089565
S11318B0A8E1B0E042E050E005C012D0272F11C0EB
S11318C0DC01CB01FC01F999FECF06C0F2BDE1BDFC
S11318D0F89A319600B40D9241505040B8F70895EB
S11318E0262FF999FECF1FBA92BD81BD20BD0FB638
S11318F0F894FA9AF99A0FBE01960895F894FFCFD6
S11319000000404100004041000090400000904031
S11319100000404100004041000090400000904021
S1131920E803E803E803E803E803E803E803E8035B
S1131930E803E803E803E803E803E803E803E8034B
S113194078001400FF00FF00C800646464646464E9
S10D195064646464646464646464A1
S9030000FC
